:040000008A117C2FB6
:100EF80083018A119C2F0430F100A530F0000130E5
:100F0800F002031D882F892F832F0130F102031D62
:100F18008E2F8F2F812F0130F2020030031CF30334
:100F2800F30273087204031D9A2F9B2F7F2F08006A
:100F38007030831603138F001030850003100030C3
:100F48000318013087000830831203179E0003102E
:100F58000030031801309F008C30831203139F0068
:100F68002030831603139F00831203131F140310EA
:100F780000300318013087009F149F18C42FC52F15
:100F8800C12F831603131E08F400F5017408F70037
:100F98007508F800831203131E08F400F5010830E1
:100FA800F6000310F40DF50DF60BD52F7408F707AE
:100FB8000318F80A7508F807F430F2000130F30056
:100FC8008A117F278A11033078027030031977025B
:100FD800031CEF2FF02FFA2F8312031387173230D9
:100FE800F2000030F3008A117F278A11831203135D
:080FF8008713C02F8A110028A5
:02400E00E4309C
:00000001FF
