:040000008A11112828
:10000800FE00030E83120313C1000408C2000A088D
:10001800C3007F08C4008A1101298A114A2D83125E
:100028000313AD002130A3002308A600E9282E08F9
:10003800253A0319202821282D282E08A3002D0849
:1000480084002308831380000130A3002308AD0730
:10005800E928A7013428FB2847284728E928472802
:100068000130A007FF30200784008A110A238A1173
:10007800AE00003A0319FB28643A031947280D3AE1
:1000880003194728E9282608840083130008A900D3
:10009800840A0008AA000230A3002308A607AA1FA2
:1000A8005628572861280330A3002308A704A90964
:1000B800AA09A90A0319AA0A6128AE010314AE0DF8
:1000C8002E08053A031D69286A286C28902890286C
:1000D8002E08A3002307013E84008A110A238A11EF
:1000E800A4008A110A238A11A50025082A02031DE3
:1000F8007F28240829020318822883288528902825
:1001080090280130A3002308AE072E08053A031DE6
:100118008E288F286C2890282708033903199528DA
:100128009628A2282D30A3002D08840023088313C5
:1001380080000130A3002308AD07A2282E08A300E1
:100148002308A800DD280A30F8000030F900280844
:10015800A3002307013E84008A110A238A11F000B4
:100168008A110A238A11F1002A08F301F3072908E2
:10017800F201F2078A1151238A117108FB01FB076A
:100188007008FA01FA078A119F238A117808303E0D
:1001980083120313A4002408AE002E08A3002D0820
:1001A80084002308831380000130A3002308AD07CF
:1001B800DD28FF30A3002308A8072808FF3A031DFD
:1001C800E628E728A728E928E9280130A007FF3012
:1001D800200784008A110A238A11A3002308AE008D
:1001E800AE08031DF828F9281B28FB28FB282D0832
:1001F80084008313800100290800831603130C1C54
:10020800062907293C29831203130C1C0C290D29E4
:100218003C29023061066204031D132914291E2992
:100228008B138A1161228A1183120313E101E201FF
:100238008B171E290C105030BD003D088706013071
:10024800E1070318E20A0030E2076208803AFF007B
:1002580080307F02031D322903306102031C3529D7
:1002680036293C2983120313E101E2013C293C2988
:10027800831203138C1E41294229AC298B13303079
:10028800BD003D08DE0045308400A030BD000408F4
:10029800BE001930BF003D08840083130008C00069
:1002A800BD0A3E08840040088000BE0ABF0B4F29E3
:1002B800DF01E0019F2915305F066004031D6529F1
:1002C80066296B290D30BD003D08DE006B298A11B7
:1002D800A2258A1183120313BD003D08DE005E08C3
:1002E8008A117D258A113030831203139A005E0823
:1002F800BD005F08453E84003D08831380000A3036
:10030800BD005F08013E453E84003D0880000D3079
:10031800BD005F08023E453E84003D0880005F083E
:10032800033E453E840080010130DF070318E00AE0
:100338000030E0079F295E080D3A031DA429A5296E
:100348005F29A6290A308A117D258A118B17AC29C5
:10035800831203134408FF0043088A0042088400FC
:10036800410E8300FE0E7E0E090083160313C3019F
:10037800BC1FBF29C029CF29B909BA09BB09BC09C3
:10038800B90A0319BA0A0319BB0A0319BC0AC3013B
:100398000314C30DCF29C01FD229D329E329BD09CE
:1003A800BE09BF09C009BD0A0319BE0A0319BF0A5D
:1003B8000319C00A0130C1004108C306E32900300F
:1003C800C7000030C6000030C5000030C4003C083B
:1003D8003B043A0439040319F229F329472AC201D4
:1003E8000314C20D052A0130C1000310B90DBA0D5E
:1003F800BB0DBC0DC10BF9290130C1004108C20772
:10040800052ABC1F082A092AF7290B2A0B2A0130BA
:10041800C1000310C40DC50DC60DC70DC10B0D2AB3
:100428003C084002031D222A3B083F02031D222AE2
:100438003A083E02031D222A39083D02031C252AD8
:10044800262A362A3908BD023A08031C3A0FBE028A
:100458003B08031C3B0FBF023C08031C3C0FC002B7
:100468004414362A01300310BC0CBB0CBA0CB90C6E
:10047800FF3E031D372A0130C202031D442A452AC4
:100488000B2A472A472A4308031D4B2A572AC4091F
:10049800C509C609C709C40A0319C50A0319C60A42
:1004A8000319C70A572A4708BC004608BB00450875
:1004B800BA004408B900602A0800831203139F1485
:1004C800652A9F18682A692A652A6A2A83160313E7
:1004D8001E0883120313AF00B0012F08BB003008B9
:1004E800BC001E08AF00B0012F08B000AF012F08F4
:1004F800BB070318BC0A3008BC0702303C020030B6
:1005080003193B020318892A8A2AB32A37308A1129
:1005180094258A113D3083120313AF002F08A000E1
:100528003C08A201A2073B08A101A10731308A11AA
:1005380013208A113130F1000030F2008A117F2433
:100548008A11831203130510E830F0000330F1001C
:100558008A11D3248A11831203130514CF2A383041
:100568008A1194258A113D3083120313AF002F0896
:10057800A0003C08A201A2073B08A101A107313055
:100588008A1113208A113130F1000030F2008A11EB
:080598007F248A11CF2A08001C
:10060000FF1B0A2B83137F1883170008840A031922
:10061000FF0A080003308A000408840A82070034B5
:10062000013400340A34003464340034E8340334D0
:1006300010342734573465346C3463346F346D347C
:100640006534203474346F34203474346834653441
:10065000203462346F346E347A3461346934203437
:10066000693472347234693467346134743469348F
:100670006F346E34203473347934733474346534A5
:100680006D3421340A340D34003400344E344F3488
:100690004B342034003400344D34253464343B343E
:1006A0000034F501F601710870040319582B592B19
:1006B000972BF7010314F70D692B01300310F00D90
:1006C000F10DFF3E031D5E2B0130F4007408F707A7
:1006D000692BF11F6C2B6D2B5D2B6F2B6F2B01305A
:1006E0000310F50DF60DFF3E031D702B710873020C
:1006F000031D7C2B70087202031C7F2B802B882B20
:100700007008F2027108031CF303F3027514882BBE
:1007100001300310F10CF00CFF3E031D892B01305A
:10072000F702031D942B952B6F2B972B972B760895
:10073000F101F1077508F001F0079E2B0800790818
:1007400078040319A42BA52BDB2BFD010314FD0D4D
:10075000B52B01300310F80DF90DFF3E031DAA2B38
:100760000130FC007C08FD07B52BF91FB82BB92B15
:10077000A92BBB2BBB2B79087B02031DC12B78084F
:100780007A02031CC42BC52BCC2B7808FA027908FB
:10079000031CFB03FB02CC2B01300310F90CF80CFB
:1007A000FF3E031DCD2B0130FD02031DD82BD92B9D
:1007B000BB2BDB2BDB2B7B08F901F9077A08F8014F
:1007C000F807E22B0800003083160313BC0000304A
:1007D000BB004B30BA000030B9004B08C0004A08DB
:1007E000BF004908BE004808BD008A11B9218A111E
:1007F000831603133908FF3ECC003A080318013E64
:10080000FF3ECD0008309B00043098008312031394
:100810009801831603134D089A004C089900861717
:10082000831203179F118312031398178316031360
:1008300098168312031318168601080083160313F3
:10084000BC01BD013D2C831603133C083A0784000C
:100850003B0803183B0A83120313FF008A1100238D
:100860008A118A116C258A11013083160313BC0783
:100870000318BD0A0030BD073D2C3C083A07840030
:100880003B0803183B0A83120313FF008A1100235D
:100890008A110038031D4D2C4E2C232C4F2C0800A0
:1008A0007030831603138F001030850087010830E5
:1008B000831203179E009F01FF30831203138700EA
:1008C000FA3083160313B9000030BA008A11AB2442
:1008D0008A118C30831203139F0020308316031378
:1008E0009F00831203131F1440308700051431301A
:1008F0009000831603130C140B178B170800F301D9
:10090000F401982C73087107840072080318720AA6
:1009100083120313FF008A1100238A118A117D2597
:100920008A110130F3070318F40A0030F407982CF9
:1009300073087107840072080318720A8312031384
:10094000FF008A1100238A110038031DA82CA92C4E
:10095000822CAA2C0800043083160313BB003B082A
:10096000BC00A530BB003B08BD00B72CB72C013044
:10097000BD02031DBC2CBD2CB72CBE2C0130BC020B
:10098000031DC32CC42CB12CC52C0130B90200307E
:10099000031CBA03BA023A083904031DD02CD12C27
:1009A000AB2CD22C08000430F2007208F300A53002
:1009B000F2007208F400DD2CDD2C0130F402031D7E
:1009C000E22CE32CDD2CE42C0130F302031DE92C96
:1009D000EA2CD72CEB2C0130F0020030031CF10381
:1009E000F10271087004031DF62CF72CD32CF82C9F
:1009F00008000A2D981CFD2CFE2C0A2D1A08F00068
:100A00007008F1001A08F0007008F10018121816AA
:100A10000A2D0A2D831203138C1E0F2D102DFA2C74
:100A2000112D1A08F0007008F100162D08008A1127
:100A300050248A11003083160313CB007A30CA0089
:100A40001230C9000030C8008A11E3238A118A11CC
:100A50009D258A110B308A1189258A112E2D8A1124
:100A600011283034003400340034003400340034B1
:100A700000340034003400340034003400340034D6
:100A800000340034003400340034003400340034C6
:100A900000340034E101E2018313B930FD00053078
:100AA000FE003130FF00A03084008A115F258A11DA
:100AB00083018A11172D7E088A007F0882008A111F
:100AC0005B258A118000840A04087D06031900341E
:100AD000FF0A0319FE0A5F2D83160313B900702D58
:100AE00083120C1E742D752D702D762D8316031315
:100AF00039088312031399000800F0007F2D831238
:100B000003130C1E842D852D7F2D862D70089900D2
:100B1000080083160313BE003E08BA008030BB00F5
:100B20008A111E248A110800F5007508F100803032
:100B3000F2008A117F248A110800831603138C1691
:0C0B40000B1708008A11F9248A11080024
:02400E00E4309C
:00000001FF
